{
  "_format": "hh-sol-artifact-1",
  "contractName": "Referral",
  "sourceName": "contracts/Referral.sol",
  "abi": [
    {
      "inputs": [
        {
          "internalType": "uint256",
          "name": "_decimals",
          "type": "uint256"
        },
        {
          "internalType": "uint256",
          "name": "_referralBonus",
          "type": "uint256"
        },
        {
          "internalType": "uint256",
          "name": "_secondsUntilInactive",
          "type": "uint256"
        },
        {
          "internalType": "bool",
          "name": "_onlyRewardActiveReferrers",
          "type": "bool"
        },
        {
          "internalType": "uint256[]",
          "name": "_levelRate",
          "type": "uint256[]"
        },
        {
          "internalType": "uint256[]",
          "name": "_refereeBonusRateMap",
          "type": "uint256[]"
        }
      ],
      "stateMutability": "nonpayable",
      "type": "constructor"
    },
    {
      "anonymous": false,
      "inputs": [
        {
          "indexed": true,
          "internalType": "address",
          "name": "previousOwner",
          "type": "address"
        },
        {
          "indexed": true,
          "internalType": "address",
          "name": "newOwner",
          "type": "address"
        }
      ],
      "name": "OwnershipTransferred",
      "type": "event"
    },
    {
      "anonymous": false,
      "inputs": [
        {
          "indexed": false,
          "internalType": "address",
          "name": "from",
          "type": "address"
        },
        {
          "indexed": false,
          "internalType": "address",
          "name": "to",
          "type": "address"
        },
        {
          "indexed": false,
          "internalType": "uint256",
          "name": "amount",
          "type": "uint256"
        },
        {
          "indexed": false,
          "internalType": "uint256",
          "name": "level",
          "type": "uint256"
        }
      ],
      "name": "PaidReferral",
      "type": "event"
    },
    {
      "anonymous": false,
      "inputs": [
        {
          "indexed": false,
          "internalType": "address",
          "name": "referee",
          "type": "address"
        },
        {
          "indexed": false,
          "internalType": "address",
          "name": "referrer",
          "type": "address"
        }
      ],
      "name": "RegisteredReferer",
      "type": "event"
    },
    {
      "anonymous": false,
      "inputs": [
        {
          "indexed": false,
          "internalType": "address",
          "name": "referee",
          "type": "address"
        },
        {
          "indexed": false,
          "internalType": "address",
          "name": "referrer",
          "type": "address"
        },
        {
          "indexed": false,
          "internalType": "string",
          "name": "reason",
          "type": "string"
        }
      ],
      "name": "RegisteredRefererFailed",
      "type": "event"
    },
    {
      "anonymous": false,
      "inputs": [
        {
          "indexed": false,
          "internalType": "address",
          "name": "user",
          "type": "address"
        },
        {
          "indexed": false,
          "internalType": "uint256",
          "name": "timestamp",
          "type": "uint256"
        }
      ],
      "name": "UpdatedUserLastActiveTime",
      "type": "event"
    },
    {
      "inputs": [
        {
          "internalType": "address",
          "name": "",
          "type": "address"
        }
      ],
      "name": "accounts",
      "outputs": [
        {
          "internalType": "address payable",
          "name": "referrer",
          "type": "address"
        },
        {
          "internalType": "uint256",
          "name": "reward",
          "type": "uint256"
        },
        {
          "internalType": "uint256",
          "name": "referredCount",
          "type": "uint256"
        },
        {
          "internalType": "uint256",
          "name": "lastActiveTimestamp",
          "type": "uint256"
        }
      ],
      "stateMutability": "view",
      "type": "function"
    },
    {
      "inputs": [
        {
          "internalType": "uint256",
          "name": "amount",
          "type": "uint256"
        }
      ],
      "name": "getRefereeBonusRate",
      "outputs": [
        {
          "internalType": "uint256",
          "name": "",
          "type": "uint256"
        }
      ],
      "stateMutability": "view",
      "type": "function"
    },
    {
      "inputs": [],
      "name": "getTime",
      "outputs": [
        {
          "internalType": "uint256",
          "name": "",
          "type": "uint256"
        }
      ],
      "stateMutability": "view",
      "type": "function"
    },
    {
      "inputs": [
        {
          "internalType": "address",
          "name": "addr",
          "type": "address"
        }
      ],
      "name": "hasReferrer",
      "outputs": [
        {
          "internalType": "bool",
          "name": "",
          "type": "bool"
        }
      ],
      "stateMutability": "view",
      "type": "function"
    },
    {
      "inputs": [],
      "name": "owner",
      "outputs": [
        {
          "internalType": "address",
          "name": "",
          "type": "address"
        }
      ],
      "stateMutability": "view",
      "type": "function"
    },
    {
      "inputs": [],
      "name": "renounceOwnership",
      "outputs": [],
      "stateMutability": "nonpayable",
      "type": "function"
    },
    {
      "inputs": [
        {
          "internalType": "bool",
          "name": "_onlyRewardActiveReferrers",
          "type": "bool"
        }
      ],
      "name": "setOnlyRewardAActiveReferrers",
      "outputs": [],
      "stateMutability": "nonpayable",
      "type": "function"
    },
    {
      "inputs": [
        {
          "internalType": "uint256",
          "name": "_secondsUntilInactive",
          "type": "uint256"
        }
      ],
      "name": "setSecondsUntilInactive",
      "outputs": [],
      "stateMutability": "nonpayable",
      "type": "function"
    },
    {
      "inputs": [
        {
          "internalType": "uint256[]",
          "name": "data",
          "type": "uint256[]"
        }
      ],
      "name": "sum",
      "outputs": [
        {
          "internalType": "uint256",
          "name": "",
          "type": "uint256"
        }
      ],
      "stateMutability": "pure",
      "type": "function"
    },
    {
      "inputs": [
        {
          "internalType": "address",
          "name": "newOwner",
          "type": "address"
        }
      ],
      "name": "transferOwnership",
      "outputs": [],
      "stateMutability": "nonpayable",
      "type": "function"
    }
  ],
  "bytecode": "0x60806040523480156200001157600080fd5b5060405162000e6138038062000e6183398101604081905262000034916200066d565b6200003f33620004b4565b6000825111620000a45760405162461bcd60e51b815260206004820152602560248201527f526566657272616c206c6576656c2073686f756c64206265206174206c65617360448201526474206f6e6560d81b60648201526084015b60405180910390fd5b815160031015620001025760405162461bcd60e51b815260206004820152602160248201527f4578636565646564206d617820726566657272616c206c6576656c20646570746044820152600d60fb1b60648201526084016200009b565b600281516200011291906200075c565b15620001975760405162461bcd60e51b815260206004820152604760248201527f5265666572656520426f6e75732052617465204d61702073686f756c6420626560448201527f2070617373206173205b3c6c6f77657220616d6f756e743e2c203c726174653e6064820152662c202e2e2e2e5d60c81b608482015260a4016200009b565b8051600390620001aa9060029062000727565b11156200020a5760405162461bcd60e51b815260206004820152602760248201527f4578636565646564206d617820726566657272656520626f6e7573206c6576656044820152660d840c8cae0e8d60cb1b60648201526084016200009b565b858511156200025c5760405162461bcd60e51b815260206004820152601b60248201527f526566657272616c20626f6e757320657863656564732031303025000000000060448201526064016200009b565b85620002688362000504565b1115620002b85760405162461bcd60e51b815260206004820152601d60248201527f546f74616c206c6576656c20726174652065786365656473203130302500000060448201526064016200009b565b6004869055600385905560058490556006805460ff19168415151790558151620002ea9060029060208501906200055c565b50805162000370576040805180820190915260018082526004546020830190815260078054928301815560005291517fa66cc928b5edb82af9bd49922954155ab7b0942694bea4ce44661d9a8736c68860029092029182015590517fa66cc928b5edb82af9bd49922954155ab7b0942694bea4ce44661d9a8736c68990910155620004a8565b60005b8151811015620004a657600454826200038e8360016200070c565b81518110620003a157620003a16200079f565b60200260200101511115620004085760405162461bcd60e51b815260206004820152602660248201527f4f6e65206f66207265666572656520626f6e757320726174652065786365656460448201526573203130302560d01b60648201526084016200009b565b600760405180604001604052808484815181106200042a576200042a6200079f565b60200260200101518152602001848460016200044791906200070c565b815181106200045a576200045a6200079f565b60209081029190910181015190915282546001818101855560009485529382902083516002928302909101908155929091015191909201556200049e90826200070c565b905062000373565b505b505050505050620007cb565b600080546001600160a01b038381166001600160a01b0319831681178455604051919092169283917f8be0079c531659141344cd1fd0a4f28419497f9722a3daafe3b4186f6b6457e09190a35050565b60008060005b835181101562000555578381815181106200052957620005296200079f565b6020026020010151826200053e91906200070c565b9150806200054c816200073e565b9150506200050a565b5092915050565b8280548282559060005260206000209081019282156200059a579160200282015b828111156200059a5782518255916020019190600101906200057d565b50620005a8929150620005ac565b5090565b5b80821115620005a85760008155600101620005ad565b600082601f830112620005d557600080fd5b815160206001600160401b0380831115620005f457620005f4620007b5565b8260051b604051601f19603f830116810181811084821117156200061c576200061c620007b5565b604052848152838101925086840182880185018910156200063c57600080fd5b600092505b858310156200066157805184529284019260019290920191840162000641565b50979650505050505050565b60008060008060008060c087890312156200068757600080fd5b86519550602087015194506040870151935060608701518015158114620006ad57600080fd5b60808801519093506001600160401b0380821115620006cb57600080fd5b620006d98a838b01620005c3565b935060a0890151915080821115620006f057600080fd5b50620006ff89828a01620005c3565b9150509295509295509295565b6000821982111562000722576200072262000773565b500190565b60008262000739576200073962000789565b500490565b600060001982141562000755576200075562000773565b5060010190565b6000826200076e576200076e62000789565b500690565b634e487b7160e01b600052601160045260246000fd5b634e487b7160e01b600052601260045260246000fd5b634e487b7160e01b600052603260045260246000fd5b634e487b7160e01b600052604160045260246000fd5b61068680620007db6000396000f3fe608060405234801561001057600080fd5b506004361061009e5760003560e01c8063715018a611610066578063715018a61461018e57806387892629146101965780638da5cb5b146101a9578063db1058a9146101c4578063f2fde38b146101d757600080fd5b80630194db8e146100a357806318452cd8146100c9578063447e78f514610107578063557ed1ba1461011c5780635e5c06e214610122575b600080fd5b6100b66100b13660046104a6565b6101ea565b6040519081526020015b60405180910390f35b6100f76100d7366004610476565b6001600160a01b0390811660009081526001602052604090205416151590565b60405190151581526020016100c0565b61011a61011536600461058d565b610239565b005b426100b6565b610164610130366004610476565b600160208190526000918252604090912080549181015460028201546003909201546001600160a01b039093169290919084565b604080516001600160a01b03909516855260208501939093529183015260608201526080016100c0565b61011a610271565b6100b66101a436600461058d565b6102a7565b6000546040516001600160a01b0390911681526020016100c0565b61011a6101d236600461056b565b61034e565b61011a6101e5366004610476565b61038b565b60008060005b83518110156102325783818151811061020b5761020b610624565b60200260200101518261021e91906105db565b91508061022a816105f3565b9150506101f0565b5092915050565b6000546001600160a01b0316331461026c5760405162461bcd60e51b8152600401610263906105a6565b60405180910390fd5b600555565b6000546001600160a01b0316331461029b5760405162461bcd60e51b8152600401610263906105a6565b6102a56000610426565b565b60008060076000815481106102be576102be610624565b90600052602060002090600202016001015490506000600190505b60075481101561023257600781815481106102f6576102f6610624565b90600052602060002090600202016000015484101561031457610232565b6007818154811061032757610327610624565b90600052602060002090600202016001015491508080610346906105f3565b9150506102d9565b6000546001600160a01b031633146103785760405162461bcd60e51b8152600401610263906105a6565b6006805460ff1916911515919091179055565b6000546001600160a01b031633146103b55760405162461bcd60e51b8152600401610263906105a6565b6001600160a01b03811661041a5760405162461bcd60e51b815260206004820152602660248201527f4f776e61626c653a206e6577206f776e657220697320746865207a65726f206160448201526564647265737360d01b6064820152608401610263565b61042381610426565b50565b600080546001600160a01b038381166001600160a01b0319831681178455604051919092169283917f8be0079c531659141344cd1fd0a4f28419497f9722a3daafe3b4186f6b6457e09190a35050565b60006020828403121561048857600080fd5b81356001600160a01b038116811461049f57600080fd5b9392505050565b600060208083850312156104b957600080fd5b823567ffffffffffffffff808211156104d157600080fd5b818501915085601f8301126104e557600080fd5b8135818111156104f7576104f761063a565b8060051b604051601f19603f8301168101818110858211171561051c5761051c61063a565b604052828152858101935084860182860187018a101561053b57600080fd5b600095505b8386101561055e578035855260019590950194938601938601610540565b5098975050505050505050565b60006020828403121561057d57600080fd5b8135801515811461049f57600080fd5b60006020828403121561059f57600080fd5b5035919050565b6020808252818101527f4f776e61626c653a2063616c6c6572206973206e6f7420746865206f776e6572604082015260600190565b600082198211156105ee576105ee61060e565b500190565b60006000198214156106075761060761060e565b5060010190565b634e487b7160e01b600052601160045260246000fd5b634e487b7160e01b600052603260045260246000fd5b634e487b7160e01b600052604160045260246000fdfea26469706673582212207eb127179633d2dfbe9876066f47554a000f471d2890b8006cf0639700f9595b64736f6c63430008070033",
  "linkReferences": {},
  "deployedLinkReferences": {}
}