{
  "_format": "hh-sol-artifact-1",
  "contractName": "Protocol",
  "sourceName": "contracts/Protocol.sol",
  "abi": [
    {
      "inputs": [
        {
          "internalType": "address",
          "name": "_setToken",
          "type": "address"
        },
        {
          "internalType": "uint256[]",
          "name": "_levelRate",
          "type": "uint256[]"
        },
        {
          "internalType": "uint256[]",
          "name": "_refereeBonusRateMap",
          "type": "uint256[]"
        }
      ],
      "stateMutability": "nonpayable",
      "type": "constructor"
    },
    {
      "anonymous": false,
      "inputs": [
        {
          "indexed": true,
          "internalType": "address",
          "name": "previousOwner",
          "type": "address"
        },
        {
          "indexed": true,
          "internalType": "address",
          "name": "newOwner",
          "type": "address"
        }
      ],
      "name": "OwnershipTransferred",
      "type": "event"
    },
    {
      "anonymous": false,
      "inputs": [
        {
          "indexed": false,
          "internalType": "address",
          "name": "from",
          "type": "address"
        },
        {
          "indexed": false,
          "internalType": "address",
          "name": "to",
          "type": "address"
        },
        {
          "indexed": false,
          "internalType": "uint256",
          "name": "amount",
          "type": "uint256"
        },
        {
          "indexed": false,
          "internalType": "uint256",
          "name": "level",
          "type": "uint256"
        }
      ],
      "name": "PaidReferral",
      "type": "event"
    },
    {
      "anonymous": false,
      "inputs": [
        {
          "indexed": false,
          "internalType": "address",
          "name": "referee",
          "type": "address"
        },
        {
          "indexed": false,
          "internalType": "address",
          "name": "referrer",
          "type": "address"
        }
      ],
      "name": "RegisteredReferer",
      "type": "event"
    },
    {
      "anonymous": false,
      "inputs": [
        {
          "indexed": false,
          "internalType": "address",
          "name": "referee",
          "type": "address"
        },
        {
          "indexed": false,
          "internalType": "address",
          "name": "referrer",
          "type": "address"
        },
        {
          "indexed": false,
          "internalType": "string",
          "name": "reason",
          "type": "string"
        }
      ],
      "name": "RegisteredRefererFailed",
      "type": "event"
    },
    {
      "anonymous": false,
      "inputs": [
        {
          "indexed": false,
          "internalType": "address",
          "name": "user",
          "type": "address"
        },
        {
          "indexed": false,
          "internalType": "uint256",
          "name": "timestamp",
          "type": "uint256"
        }
      ],
      "name": "UpdatedUserLastActiveTime",
      "type": "event"
    },
    {
      "inputs": [
        {
          "internalType": "address",
          "name": "",
          "type": "address"
        }
      ],
      "name": "accounts",
      "outputs": [
        {
          "internalType": "address payable",
          "name": "referrer",
          "type": "address"
        },
        {
          "internalType": "uint256",
          "name": "reward",
          "type": "uint256"
        },
        {
          "internalType": "uint256",
          "name": "referredCount",
          "type": "uint256"
        },
        {
          "internalType": "uint256",
          "name": "lastActiveTimestamp",
          "type": "uint256"
        }
      ],
      "stateMutability": "view",
      "type": "function"
    },
    {
      "inputs": [
        {
          "internalType": "uint256",
          "name": "amount",
          "type": "uint256"
        },
        {
          "internalType": "address payable",
          "name": "_referrer",
          "type": "address"
        }
      ],
      "name": "buySet",
      "outputs": [],
      "stateMutability": "nonpayable",
      "type": "function"
    },
    {
      "inputs": [
        {
          "internalType": "uint256",
          "name": "amount",
          "type": "uint256"
        },
        {
          "internalType": "address payable",
          "name": "_referrer",
          "type": "address"
        }
      ],
      "name": "buySetWithETH",
      "outputs": [],
      "stateMutability": "payable",
      "type": "function"
    },
    {
      "inputs": [
        {
          "internalType": "contract IERC20",
          "name": "fromToken",
          "type": "address"
        },
        {
          "internalType": "contract IERC20",
          "name": "destToken",
          "type": "address"
        },
        {
          "internalType": "uint256",
          "name": "amountOut",
          "type": "uint256"
        }
      ],
      "name": "getAmountIn",
      "outputs": [
        {
          "internalType": "uint256",
          "name": "",
          "type": "uint256"
        }
      ],
      "stateMutability": "view",
      "type": "function"
    },
    {
      "inputs": [
        {
          "internalType": "uint256",
          "name": "amount",
          "type": "uint256"
        }
      ],
      "name": "getRefereeBonusRate",
      "outputs": [
        {
          "internalType": "uint256",
          "name": "",
          "type": "uint256"
        }
      ],
      "stateMutability": "view",
      "type": "function"
    },
    {
      "inputs": [],
      "name": "getTime",
      "outputs": [
        {
          "internalType": "uint256",
          "name": "",
          "type": "uint256"
        }
      ],
      "stateMutability": "view",
      "type": "function"
    },
    {
      "inputs": [
        {
          "internalType": "address",
          "name": "addr",
          "type": "address"
        }
      ],
      "name": "hasReferrer",
      "outputs": [
        {
          "internalType": "bool",
          "name": "",
          "type": "bool"
        }
      ],
      "stateMutability": "view",
      "type": "function"
    },
    {
      "inputs": [],
      "name": "owner",
      "outputs": [
        {
          "internalType": "address",
          "name": "",
          "type": "address"
        }
      ],
      "stateMutability": "view",
      "type": "function"
    },
    {
      "inputs": [],
      "name": "renounceOwnership",
      "outputs": [],
      "stateMutability": "nonpayable",
      "type": "function"
    },
    {
      "inputs": [
        {
          "internalType": "bool",
          "name": "_onlyRewardActiveReferrers",
          "type": "bool"
        }
      ],
      "name": "setOnlyRewardAActiveReferrers",
      "outputs": [],
      "stateMutability": "nonpayable",
      "type": "function"
    },
    {
      "inputs": [
        {
          "internalType": "uint256",
          "name": "_secondsUntilInactive",
          "type": "uint256"
        }
      ],
      "name": "setSecondsUntilInactive",
      "outputs": [],
      "stateMutability": "nonpayable",
      "type": "function"
    },
    {
      "inputs": [],
      "name": "setToken",
      "outputs": [
        {
          "internalType": "address",
          "name": "",
          "type": "address"
        }
      ],
      "stateMutability": "view",
      "type": "function"
    },
    {
      "inputs": [
        {
          "internalType": "uint256[]",
          "name": "data",
          "type": "uint256[]"
        }
      ],
      "name": "sum",
      "outputs": [
        {
          "internalType": "uint256",
          "name": "",
          "type": "uint256"
        }
      ],
      "stateMutability": "pure",
      "type": "function"
    },
    {
      "inputs": [
        {
          "internalType": "address",
          "name": "newOwner",
          "type": "address"
        }
      ],
      "name": "transferOwnership",
      "outputs": [],
      "stateMutability": "nonpayable",
      "type": "function"
    }
  ],
  "bytecode": "0x6080604052600980546001600160a01b031990811673a5e0829caced8ffdd4de3c43696c57f7d7a678ff17909155600a805482167338e5462bbe6a72f79606c1a0007468aa4334a92b179055600b8054909116733700414bb6716fcd8b14344fb10ddd91fdea59ec1790553480156200007757600080fd5b5060405162002635380380620026358339810160408190526200009a9162000705565b6127106103e86201518060008585620000b3336200054c565b6000825111620001185760405162461bcd60e51b815260206004820152602560248201527f526566657272616c206c6576656c2073686f756c64206265206174206c65617360448201526474206f6e6560d81b60648201526084015b60405180910390fd5b815160031015620001765760405162461bcd60e51b815260206004820152602160248201527f4578636565646564206d617820726566657272616c206c6576656c20646570746044820152600d60fb1b60648201526084016200010f565b60028151620001869190620007df565b156200020b5760405162461bcd60e51b815260206004820152604760248201527f5265666572656520426f6e75732052617465204d61702073686f756c6420626560448201527f2070617373206173205b3c6c6f77657220616d6f756e743e2c203c726174653e6064820152662c202e2e2e2e5d60c81b608482015260a4016200010f565b80516003906200021e90600290620007aa565b11156200027e5760405162461bcd60e51b815260206004820152602760248201527f4578636565646564206d617820726566657272656520626f6e7573206c6576656044820152660d840c8cae0e8d60cb1b60648201526084016200010f565b85851115620002d05760405162461bcd60e51b815260206004820152601b60248201527f526566657272616c20626f6e757320657863656564732031303025000000000060448201526064016200010f565b85620002dc836200059c565b11156200032c5760405162461bcd60e51b815260206004820152601d60248201527f546f74616c206c6576656c20726174652065786365656473203130302500000060448201526064016200010f565b6004869055600385905560058490556006805460ff191684151517905581516200035e906002906020850190620005f4565b508051620003e4576040805180820190915260018082526004546020830190815260078054928301815560005291517fa66cc928b5edb82af9bd49922954155ab7b0942694bea4ce44661d9a8736c68860029092029182015590517fa66cc928b5edb82af9bd49922954155ab7b0942694bea4ce44661d9a8736c689909101556200051c565b60005b81518110156200051a5760045482620004028360016200078f565b8151811062000415576200041562000822565b602002602001015111156200047c5760405162461bcd60e51b815260206004820152602660248201527f4f6e65206f66207265666572656520626f6e757320726174652065786365656460448201526573203130302560d01b60648201526084016200010f565b600760405180604001604052808484815181106200049e576200049e62000822565b6020026020010151815260200184846001620004bb91906200078f565b81518110620004ce57620004ce62000822565b60209081029190910181015190915282546001818101855560009485529382902083516002928302909101908155929091015191909201556200051290826200078f565b9050620003e7565b505b5050600880546001600160a01b0319166001600160a01b039890981697909717909655506200084e945050505050565b600080546001600160a01b038381166001600160a01b0319831681178455604051919092169283917f8be0079c531659141344cd1fd0a4f28419497f9722a3daafe3b4186f6b6457e09190a35050565b60008060005b8351811015620005ed57838181518110620005c157620005c162000822565b602002602001015182620005d691906200078f565b915080620005e481620007c1565b915050620005a2565b5092915050565b82805482825590600052602060002090810192821562000632579160200282015b828111156200063257825182559160200191906001019062000615565b506200064092915062000644565b5090565b5b8082111562000640576000815560010162000645565b600082601f8301126200066d57600080fd5b815160206001600160401b03808311156200068c576200068c62000838565b8260051b604051601f19603f83011681018181108482111715620006b457620006b462000838565b60405284815283810192508684018288018501891015620006d457600080fd5b600092505b85831015620006f9578051845292840192600192909201918401620006d9565b50979650505050505050565b6000806000606084860312156200071b57600080fd5b83516001600160a01b03811681146200073357600080fd5b60208501519093506001600160401b03808211156200075157600080fd5b6200075f878388016200065b565b935060408601519150808211156200077657600080fd5b5062000785868287016200065b565b9150509250925092565b60008219821115620007a557620007a5620007f6565b500190565b600082620007bc57620007bc6200080c565b500490565b6000600019821415620007d857620007d8620007f6565b5060010190565b600082620007f157620007f16200080c565b500690565b634e487b7160e01b600052601160045260246000fd5b634e487b7160e01b600052601260045260246000fd5b634e487b7160e01b600052603260045260246000fd5b634e487b7160e01b600052604160045260246000fd5b611dd7806200085e6000396000f3fe6080604052600436106100dd5760003560e01c8063715018a61161007f5780638da5cb5b116100595780638da5cb5b14610296578063db1058a9146102c8578063ed9cf58c146102e8578063f2fde38b1461030857600080fd5b8063715018a61461024e57806387892629146102635780638804cc1b1461028357600080fd5b806353b609b5116100bb57806353b609b514610182578063557ed1ba146101a25780635e5c06e2146101b55780636f2271691461022e57600080fd5b80630194db8e146100e257806318452cd814610115578063447e78f514610160575b600080fd5b3480156100ee57600080fd5b506101026100fd36600461197c565b610328565b6040519081526020015b60405180910390f35b34801561012157600080fd5b50610150610130366004611893565b6001600160a01b0390811660009081526001602052604090205416151590565b604051901515815260200161010c565b34801561016c57600080fd5b5061018061017b366004611ac4565b610377565b005b34801561018e57600080fd5b5061010261019d366004611a83565b6103af565b3480156101ae57600080fd5b5042610102565b3480156101c157600080fd5b506102046101d0366004611893565b600160208190526000918252604090912080549181015460028201546003909201546001600160a01b039093169290919084565b604080516001600160a01b039095168552602085019390935291830152606082015260800161010c565b34801561023a57600080fd5b50610180610249366004611af6565b61052d565b34801561025a57600080fd5b50610180610755565b34801561026f57600080fd5b5061010261027e366004611ac4565b61078b565b610180610291366004611af6565b610832565b3480156102a257600080fd5b506000546001600160a01b03165b6040516001600160a01b03909116815260200161010c565b3480156102d457600080fd5b506101806102e3366004611a49565b610b03565b3480156102f457600080fd5b506008546102b0906001600160a01b031681565b34801561031457600080fd5b50610180610323366004611893565b610b40565b60008060005b83518110156103705783818151811061034957610349611d52565b60200260200101518261035c9190611c98565b91508061036881611d21565b91505061032e565b5092915050565b6000546001600160a01b031633146103aa5760405162461bcd60e51b81526004016103a190611bb9565b60405180910390fd5b600555565b604080516002808252606082018352600092839291906020830190803683370190505090506103dd85610bdb565b6103e757846103fd565b730d500b1d8e8ef31e21c99d1db9a6444d3adf12705b8160008151811061041057610410611d52565b60200260200101906001600160a01b031690816001600160a01b03168152505061043984610bdb565b6104435783610459565b730d500b1d8e8ef31e21c99d1db9a6444d3adf12705b8160018151811061046c5761046c611d52565b6001600160a01b0392831660209182029290920101526009546040516307c0329d60e21b81526000929190911690631f00ca74906104b09087908690600401611bee565b60006040518083038186803b1580156104c857600080fd5b505afa1580156104dc573d6000803e3d6000fd5b505050506040513d6000823e601f3d908101601f191682016040526105049190810190611a14565b90508060008151811061051957610519611d52565b6020026020010151925050505b9392505050565b33600090815260016020526040902054829082906001600160a01b03166105605761055781610c15565b61056057600080fd5b600a54600854604051637a4ffd0360e01b81526001600160a01b0391821660048201526024810187905260009283921690637a4ffd039060440160006040518083038186803b1580156105b257600080fd5b505afa1580156105c6573d6000803e3d6000fd5b505050506040513d6000823e601f3d908101601f191682016040526105ee91908101906118b0565b9150915060005b82518110156106d45781818151811061061057610610611d52565b602002602001015183828151811061062a5761062a611d52565b6020908102919091010151600a54604051636eb1769f60e11b81523360048201526001600160a01b03918216602482015291169063dd62ed3e9060440160206040518083038186803b15801561067f57600080fd5b505afa158015610693573d6000803e3d6000fd5b505050506040513d601f19601f820116820180604052508101906106b79190611add565b10156106c257600080fd5b806106cc81611d21565b9150506105f5565b50600a546008546040516336bc7a3d60e11b81526001600160a01b03918216600482015260248101899052336044820152911690636d78f47a90606401600060405180830381600087803b15801561072b57600080fd5b505af115801561073f573d6000803e3d6000fd5b50505050505061074e82610e79565b5050505050565b6000546001600160a01b0316331461077f5760405162461bcd60e51b81526004016103a190611bb9565b610789600061107e565b565b60008060076000815481106107a2576107a2611d52565b90600052602060002090600202016001015490506000600190505b60075481101561037057600781815481106107da576107da611d52565b9060005260206000209060020201600001548410156107f857610370565b6007818154811061080b5761080b611d52565b9060005260206000209060020201600101549150808061082a90611d21565b9150506107bd565b33600090815260016020526040902054829082906001600160a01b03166108655761085c81610c15565b61086557600080fd5b6000341161087257600080fd5b600a54600854604051637a4ffd0360e01b81526001600160a01b0391821660048201526024810187905260009283921690637a4ffd039060440160006040518083038186803b1580156108c457600080fd5b505afa1580156108d8573d6000803e3d6000fd5b505050506040513d6000823e601f3d908101601f1916820160405261090091908101906118b0565b9150915060005b82518110156106d457730d500b1d8e8ef31e21c99d1db9a6444d3adf12706001600160a01b031683828151811061094057610940611d52565b60200260200101516001600160a01b031614156109dd57730d500b1d8e8ef31e21c99d1db9a6444d3adf12706001600160a01b031663d0e30db083838151811061098c5761098c611d52565b60200260200101516040518263ffffffff1660e01b81526004016000604051808303818588803b1580156109bf57600080fd5b505af11580156109d3573d6000803e3d6000fd5b5050505050610a92565b6109ff8382815181106109f2576109f2611d52565b6020026020010151610bdb565b610a92576000610a5673eeeeeeeeeeeeeeeeeeeeeeeeeeeeeeeeeeeeeeee858481518110610a2f57610a2f611d52565b6020026020010151858581518110610a4957610a49611d52565b60200260200101516103af565b9050610a9073eeeeeeeeeeeeeeeeeeeeeeeeeeeeeeeeeeeeeeee858481518110610a8257610a82611d52565b6020026020010151836110ce565b505b600a548251610af1916001600160a01b031690849084908110610ab757610ab7611d52565b6020026020010151858481518110610ad157610ad1611d52565b60200260200101516001600160a01b03166112e49092919063ffffffff16565b80610afb81611d21565b915050610907565b6000546001600160a01b03163314610b2d5760405162461bcd60e51b81526004016103a190611bb9565b6006805460ff1916911515919091179055565b6000546001600160a01b03163314610b6a5760405162461bcd60e51b81526004016103a190611bb9565b6001600160a01b038116610bcf5760405162461bcd60e51b815260206004820152602660248201527f4f776e61626c653a206e6577206f776e657220697320746865207a65726f206160448201526564647265737360d01b60648201526084016103a1565b610bd88161107e565b50565b60006001600160a01b0382161580610c0f57506001600160a01b03821673eeeeeeeeeeeeeeeeeeeeeeeeeeeeeeeeeeeeeeee145b92915050565b60006001600160a01b038216610ca857604080513381526001600160a01b03841660208201526060918101829052601e918101919091527f52656665727265722063616e6e6f74206265203078302061646472657373000060808201527f63a04625ee50186097257e079ace9a312982f1976bdffa769db82a83c2ffc0069060a0015b60405180910390a1506000919050565b610cb2823361142f565b15610d4057604080513381526001600160a01b038416602082015260609181018290526029918101919091527f526566657265652063616e6e6f74206265206f6e65206f662072656665727265608082015268722075706c696e657360b81b60a08201527f63a04625ee50186097257e079ace9a312982f1976bdffa769db82a83c2ffc0069060c001610c98565b336000908152600160205260409020546001600160a01b031615610de157604080513381526001600160a01b038416602082015260609181018290526023918101919091527f416464726573732068617665206265656e20726567697374657265642075706c608082015262696e6560e81b60a08201527f63a04625ee50186097257e079ace9a312982f1976bdffa769db82a83c2ffc0069060c001610c98565b336000908152600160205260408082206001600160a01b0385168084529190922082546001600160a01b03191690911782554260038301556002810154610e299060016114b1565b6002820155604080513381526001600160a01b03861660208201527ffaf63637882ff2d63ca76881cf92fb857130e36f350c926f9cc884b499b42b77910160405180910390a15060019392505050565b336000908152600160208181526040808420815160808101835281546001600160a01b03168152938101549284019290925260028201549083015260030154606082015281805b6002548110156110745782516001600160a01b038116600081815260016020526040902090610ef0575050611074565b60065460ff168015610f125750426005546003830154610f0f916114b1565b10155b80610f20575060065460ff16155b15611026576000610f48600454610f426003548b6114bd90919063ffffffff16565b906114c9565b9050610f80600454610f4260028781548110610f6657610f66611d52565b9060005260206000200154846114bd90919063ffffffff16565b9050610f9f600454610f42610f98856002015461078b565b84906114bd565b9050610fab85826114b1565b6001830154909550610fbd90826114b1565b82600101819055507f3eb64e24c53fdbac5e2f9a92ef0865a35f6777db50dd26bc5d3f813e7ec44d05338483876001610ff69190611c98565b604080516001600160a01b03958616815294909316602085015291830152606082015260800160405180910390a1505b6040805160808101825282546001600160a01b03168152600183015460208201526002830154918101919091526003909101546060820152935081905061106c81611d21565b915050610ec0565b50610526336114d5565b600080546001600160a01b038381166001600160a01b0319831681178455604051919092169283917f8be0079c531659141344cd1fd0a4f28419497f9722a3daafe3b4186f6b6457e09190a35050565b600060001982146110df57816110e9565b6110e98430611536565b90506110f484610bdb565b1561116257730d500b1d8e8ef31e21c99d1db9a6444d3adf12706001600160a01b031663d0e30db0826040518263ffffffff1660e01b81526004016000604051808303818588803b15801561114857600080fd5b505af115801561115c573d6000803e3d6000fd5b50505050505b6040805160028082526060820183526000926020830190803683375050600954919250506001600160a01b03166338ed173983600184306111a34284611c98565b6040518663ffffffff1660e01b81526004016111c3959493929190611c07565b600060405180830381600087803b1580156111dd57600080fd5b505af11580156111f1573d6000803e3d6000fd5b505050506111fe84610bdb565b1561074e576040516370a0823160e01b8152306004820152730d500b1d8e8ef31e21c99d1db9a6444d3adf127090632e1a7d4d9082906370a082319060240160206040518083038186803b15801561125557600080fd5b505afa158015611269573d6000803e3d6000fd5b505050506040513d601f19601f8201168201806040525081019061128d9190611add565b6040518263ffffffff1660e01b81526004016112ab91815260200190565b600060405180830381600087803b1580156112c557600080fd5b505af11580156112d9573d6000803e3d6000fd5b505050505050505050565b80158061136d5750604051636eb1769f60e11b81523060048201526001600160a01b03838116602483015284169063dd62ed3e9060440160206040518083038186803b15801561133357600080fd5b505afa158015611347573d6000803e3d6000fd5b505050506040513d601f19601f8201168201806040525081019061136b9190611add565b155b6113d85760405162461bcd60e51b815260206004820152603660248201527f5361666545524332303a20617070726f76652066726f6d206e6f6e2d7a65726f60448201527520746f206e6f6e2d7a65726f20616c6c6f77616e636560501b60648201526084016103a1565b604080516001600160a01b038416602482015260448082018490528251808303909101815260649091019091526020810180516001600160e01b031663095ea7b360e01b17905261142a9084906115d7565b505050565b600082815b6002548110156114a6576001600160a01b038216611451576114a6565b836001600160a01b0316826001600160a01b0316141561147657600192505050610c0f565b6001600160a01b03918216600090815260016020526040902054909116908061149e81611d21565b915050611434565b506000949350505050565b60006105268284611c98565b60006105268284611cd2565b60006105268284611cb0565b6000426001600160a01b038316600081815260016020908152604091829020600301849055815192835282018390529192507f0186c8486ec4ff89359fec8af5f6a89cbdbaa26a8e9fe4bb2f15eb86b8513cb8910160405180910390a15050565b600061154183610bdb565b1561155757506001600160a01b03811631610c0f565b6040516370a0823160e01b81526001600160a01b0383811660048301528416906370a082319060240160206040518083038186803b15801561159857600080fd5b505afa1580156115ac573d6000803e3d6000fd5b505050506040513d601f19601f820116820180604052508101906115d09190611add565b9050610c0f565b600061162c826040518060400160405280602081526020017f5361666545524332303a206c6f772d6c6576656c2063616c6c206661696c6564815250856001600160a01b03166116a99092919063ffffffff16565b80519091501561142a578080602001905181019061164a9190611a66565b61142a5760405162461bcd60e51b815260206004820152602a60248201527f5361666545524332303a204552433230206f7065726174696f6e20646964206e6044820152691bdd081cdd58d8d9595960b21b60648201526084016103a1565b60606116b884846000856116c0565b949350505050565b6060824710156117215760405162461bcd60e51b815260206004820152602660248201527f416464726573733a20696e73756666696369656e742062616c616e636520666f6044820152651c8818d85b1b60d21b60648201526084016103a1565b843b61176f5760405162461bcd60e51b815260206004820152601d60248201527f416464726573733a2063616c6c20746f206e6f6e2d636f6e747261637400000060448201526064016103a1565b600080866001600160a01b0316858760405161178b9190611b6a565b60006040518083038185875af1925050503d80600081146117c8576040519150601f19603f3d011682016040523d82523d6000602084013e6117cd565b606091505b50915091506117dd8282866117e8565b979650505050505050565b606083156117f7575081610526565b8251156118075782518084602001fd5b8160405162461bcd60e51b81526004016103a19190611b86565b600082601f83011261183257600080fd5b8151602061184761184283611c74565b611c43565b80838252828201915082860187848660051b890101111561186757600080fd5b60005b858110156118865781518452928401929084019060010161186a565b5090979650505050505050565b6000602082840312156118a557600080fd5b813561052681611d7e565b600080604083850312156118c357600080fd5b825167ffffffffffffffff808211156118db57600080fd5b818501915085601f8301126118ef57600080fd5b815160206118ff61184283611c74565b8083825282820191508286018a848660051b890101111561191f57600080fd5b600096505b8487101561194b57805161193781611d7e565b835260019690960195918301918301611924565b509188015191965090935050508082111561196557600080fd5b5061197285828601611821565b9150509250929050565b6000602080838503121561198f57600080fd5b823567ffffffffffffffff8111156119a657600080fd5b8301601f810185136119b757600080fd5b80356119c561184282611c74565b80828252848201915084840188868560051b87010111156119e557600080fd5b600094505b83851015611a085780358352600194909401939185019185016119ea565b50979650505050505050565b600060208284031215611a2657600080fd5b815167ffffffffffffffff811115611a3d57600080fd5b6116b884828501611821565b600060208284031215611a5b57600080fd5b813561052681611d93565b600060208284031215611a7857600080fd5b815161052681611d93565b600080600060608486031215611a9857600080fd5b8335611aa381611d7e565b92506020840135611ab381611d7e565b929592945050506040919091013590565b600060208284031215611ad657600080fd5b5035919050565b600060208284031215611aef57600080fd5b5051919050565b60008060408385031215611b0957600080fd5b823591506020830135611b1b81611d7e565b809150509250929050565b600081518084526020808501945080840160005b83811015611b5f5781516001600160a01b031687529582019590820190600101611b3a565b509495945050505050565b60008251611b7c818460208701611cf1565b9190910192915050565b6020815260008251806020840152611ba5816040850160208701611cf1565b601f01601f19169190910160400192915050565b6020808252818101527f4f776e61626c653a2063616c6c6572206973206e6f7420746865206f776e6572604082015260600190565b8281526040602082015260006116b86040830184611b26565b85815284602082015260a060408201526000611c2660a0830186611b26565b6001600160a01b0394909416606083015250608001529392505050565b604051601f8201601f1916810167ffffffffffffffff81118282101715611c6c57611c6c611d68565b604052919050565b600067ffffffffffffffff821115611c8e57611c8e611d68565b5060051b60200190565b60008219821115611cab57611cab611d3c565b500190565b600082611ccd57634e487b7160e01b600052601260045260246000fd5b500490565b6000816000190483118215151615611cec57611cec611d3c565b500290565b60005b83811015611d0c578181015183820152602001611cf4565b83811115611d1b576000848401525b50505050565b6000600019821415611d3557611d35611d3c565b5060010190565b634e487b7160e01b600052601160045260246000fd5b634e487b7160e01b600052603260045260246000fd5b634e487b7160e01b600052604160045260246000fd5b6001600160a01b0381168114610bd857600080fd5b8015158114610bd857600080fdfea264697066735822122070c4f4287db3c95dc0e154ec285abf95086154c0257918ee0b7f59c5ff72133564736f6c63430008070033",
  "linkReferences": {},
  "deployedLinkReferences": {}
}